S012000043616C63756C61746F722E7372656308
S11300000C9459000C9476000C9476000C947600B1
S11300100C9476000C9476000C9476000C94760084
S11300200C9476000C9476000C9476000C94760074
S11300300C9476000C9476000C9476000C94760064
S11300400C9476000C9476000C9476000C94760054
S11300500C947600B8059205730592057305920514
S11300608005800580058005800580058005800564
S113007080058005730573057305C3057305730552
S113008073057305730573057305730573057305AC
S1130090730573057305730573057305730573059C
S11300A0730573057305730573057305730573058C
S11300B0920511241FBECFE5D8E0DEBFCDBF10E00E
S11300C0A0E6B0E0ECE2F0E102C005900D92A638A3
S11300D0B107D9F720E0A6E8B0E001C01D92AE3820
S11300E0B207E1F70E945D050C9414080C9400001B
S11300F06FE080E00E94F1056FEF80E00E9403064C
S11301000895CF92DF92EF92FF920F931F93CF93B4
S1130110DF93CDB7DEB7A0970FB6F894DEBF0FBE5E
S1130120CDBF80E1E6E6F0E0DE01119601900D928C
S11301308A95E1F788E0E6E7F0E0DE015196019068
S11301400D928A95E1F788E0EEE7F0E0DE0159963A
S113015001900D928A95E1F7E12CF12C4AC0F70148
S1130160EE0FFF1F81E090E08C0F9D1FE80FF91F39
S1130170C08840E06C2D80E00E94150600E010E08D
S11301802DC0F801EE0FFF1F81E090E08C0F9D1F42
S1130190E80FF91FD08C6D2D80E00E94900681112C
S11301A01BC08BE49DE10197F1F700C000006D2DA9
S11301B080E00E9490068823D1F3000F111F000FE6
S11301C0111F81E090E08C0F9D1F080F191FF8018B
S11301D0EE0DFF1D808113C00F5F1F4F043011050A
S11301E084F241E06C2D80E00E9415069FEFE91A2D
S11301F0F90A84E0E816F1040CF4B1CF80E0A0968B
S11302000FB6F894DEBF0FBECDBFDF91CF911F9123
S11302100F91FF90EF90DF90CF900895CF93C82F68
S113022041E062E082E00E94150640E060E082E086
S11302300E9415066C2F83E00E9403068DEE92E067
S11302400197F1F700C0000040E062E082E00E9404
S1130250150685EA9EE00197F1F700C00000CF91F2
S11302600895CF9320918800309189002832310578
S11302709CF5C82F41E060E082E00E94150641E051
S113028062E082E00E9415066C2F83E00E94030660
S113029083EF91E00197F1F700C0000040E062E0D5
S11302A082E00E9415068091880090918900019651
S11302B09093890080938800209186003091870074
S11302C0821793071CF088E10E940E0185EA9EE0E4
S11302D00197F1F700C00000CF9108950F931F9389
S11302E0CF93DF93D82FC62F862F90E09093890069
S11302F08093880082E00E940E01D11105C080E83D
S11303008C0F0E940E0104C080EC8C0F0E940E0121
S1130310809188009091890099230CF40F9695950B
S11303208795959587959595879595958795019644
S113033082959295907F9827807F98270197909334
S113034087008093860000E010E00CC088E10E94E2
S11303500E01219602C0C0E0D0E0C031D105B4F353
S11303600F5F1F4F809188009091890099230CF4AE
S11303700F969595879595958795959587959595D8
S11303808795081719073CF3DF91CF911F910F91BF
S1130390089581E00E940E0160E080E00E946E01F9
S11303A008958BE49DE10197F1F700C0000067E038
S11303B082E00E94F1056FEF83E00E94F10582E084
S11303C00E940E0188E30E940E018FE00E940E013C
S11303D00E94C90186E00E940E0160E080E00E9454
S11303E06E0110928900109288008FE090E0909343
S11303F08700809386000895AC0120E030E081E01E
S113040090E00AC0FC01E49FC001E59F900DF49FB9
S1130410900D11242F5F3F4F261737079CF3089543
S1130420CF92DF92EF92FF920F931F93CF93DF93BC
S1130430FC01E080F180C481D5812197C12CD12CAD
S113044018C0F7010081118100531109BE018AE02F
S113045090E00E94FC019C01029FC001039F900D4B
S1130460129F900D1124C80ED91EF701E480F58067
S11304702197DD2334F7C601DF91CF911F910F91AE
S1130480FF90EF90DF90CF900895CF92DF92EF929C
S1130490FF920F931F93CF93DF938C01DC01CD91D7
S11304A0DC91B4C00480F581E02D808191818D9729
S11304B091F40480F581E02D80819181919581955D
S11304C09109918380836C817D81FB0144815581F5
S11304D0C8010E94B504EC81FD8180819181883539
S11304E09105E1F448815981A481B5812D913C9114
S11304F0429FC001439F900D529F900D11249983F8
S11305008883E480F580AF01BE01C8010E94B50470
S1130510A701BE01C8010E94B50478C08F329105BD
S113052009F069C0E480F580D7011496ED91FC913F
S11305301597309709F446C08081918188359105DB
S113054009F040C00480F581E02D808191818D9770
S1130550A1F40480F581E02D8081918191958195AC
S113056091099183808314966D917C911597FB0179
S113057044815581C8010E94B50448815981D7013D
S11305801496ED91FC9115970480F581E02D20815E
S11305903181429FC001439F900D529F900D1124C1
S11305A09983888314964D915C911597FA01C480C0
S11305B0D580B701C8010E94B504A601B701C801DE
S11305C00E94B50488819981EC81FD81A481B58163
S11305D06D917C910E94C50679836883E480F580DF
S11305E0AF01BE01C8010E94B504A701BE01C80144
S11305F00E94B5040BC08D32910511F08B9719F44C
S1130600C481D58103C08FEF9FEF05C0EC81FD81CC
S1130610309709F047CFDF91CF911F910F91FF9051
S1130620EF90DF90CF900895EF92FF920F931F9376
S1130630CF93DF938C01FC01C081D18153C004802E
S1130640F581E02D808191818D9791F40480F5816D
S1130650E02D808191819195819591099183808389
S11306606C817D81FB0144815581C8010E94B504E0
S1130670EC81FD81808191818B329105B9F42881CF
S11306803981A481B5818D919C91820F931F9983A7
S11306908883E480F580AF01BE01C8010E94B504DF
S11306A0A701BE01C8010E94B5041CC08D97B9F40E
S11306B088819981A481B5812D913C91821B930BF2
S11306C099838883E480F580AF01BE01C8010E944C
S11306D0B504A701BE01C8010E94B50403C08FEF91
S11306E09FEF05C0EC81FD81309709F0A8CFDF9121
S11306F0CF911F910F91FF90EF900895CF93DF93C7
S1130700EC01E881F981808191818D9769F40480FD
S1130710F581E02D80819181919581959109918355
S11307208083CE010E9435048C819D81029711F152
S1130730CE010E944502E881F981808191818D97E3
S113074069F40480F581E02D8081918191958195F2
S1130750910991838083CE010E9435048C819D810F
S1130760029759F0CE010E941403E881F981808137
S1130770918105C08FEF9FEF02C08FEF9FEFDF9154
S1130780CF910895FC011182108213821282158286
S113079014820895FC012081318181E0232B09F02A
S11307A080E090E00895EF92FF920F931F93CF9310
S11307B0DF93EC017B018A0186E090E00E94F3065E
S11307C0FC01F182E08213830283888199819583FD
S11307D08483892B11F4FB83EA83F983E8838C8176
S11307E09D8101969D838C83DF91CF911F910F9101
S11307F0FF90EF900895CF92DF92EF92FF920F93C4
S11308001F93CF93DF93EC016B017A010E94CA031B
S11308108C01892B41F0A701B601CE010E94D303BC
S11308200FEF1FEF18C086E090E00E94F306FC0172
S1130830D182C082F382E28215821482AA81BB81B2
S113084015969C938E9314979B838A838C819D81A8
S113085001969D838C83C801DF91CF911F910F91E5
S1130860FF90EF90DF90CF9008950F931F93CF9355
S1130870DF93EC010E94CA038C01892BB1F48881B7
S11308809981FC0124813581232B11F41B821A8266
S1130890FC0124813581398328830E948B078C8154
S11308A09D8101979D838C8302C00FEF1FEFC801C8
S11308B0DF91CF911F910F910895CF92DF92EF9224
S11308C0FF920F931F93CF93DF937C018B010E94C0
S11308D0CA036C01892BE1F5F701C081D1818C81B8
S11308E09D81892B29F0888199818017910729F5A9
S11308F0C7010E9435040F2EFEEFCF2EDD24DA94BB
S1130900F02D29C08081918108171907A9F48481E9
S113091095819D838C83CF010E948B078C819D815F
S1130920892B19F4F701D383C283F701848195815C
S11309300197958384830FC0EF01EC81FD8130978B
S113094009F70F2EFDEFCF2EDD24DA94F02D03C02E
S1130950CC24CA94DC2CC601DF91CF911F910F9156
S1130960FF90EF90DF90CF900895CF92DF92EF92B7
S1130970FF920F931F93CF93DF934115510509F411
S113098042C06115710509F445C0EA018B017C017F
S11309904617570739F4688179810E945D04C12C98
S11309A0D12C42C0FB01848195814817590741F03D
S11309B068817981C7010E945D04C12CD12C34C0A7
S11309C0C7010E94CA036C01892B59F5F701848180
S11309D09581019721F4C7010E94350425C08C81BB
S11309E09D81F80195838483892B19F4F70113837E
S11309F00283CE010E948B07F701848195810197C0
S1130A009583848311C00F2EFEEFCF2EDD24DA945C
S1130A10F02D0AC00F2EFEEFCF2EDD24DA94F02D38
S1130A2003C0CC24CA94DC2CC601DF91CF911F9162
S1130A300F91FF90EF90DF90CF900895CF93DF93C5
S1130A40EC0103C0CE010E943504CE010E94CA030A
S1130A50892BC1F3DF91CF910895CF93009781F053
S1130A601CF49195819591096AE070E00E94C50695
S1130A70C82FCB010E942D0580E38C0F0E94310109
S1130A80CF910895992334F491958195910920E0AB
S1130A9030E00AC00097D9F70DC02F5F3F4F6AE0DE
S1130AA070E00E94C506CB0118161906B4F3822F14
S1130AB0932F089581E090E00895CF93DF93CDB70D
S1130AC0DEB72C970FB6F894DEBF0FBECDBF0E94E1
S1130AD078000E94D101CE0101960E94C203CE018A
S1130AE007960E94C2030E948100182F90E0FC0127
S1130AF0BA97EF32F105B8F7E65DFF4F0C94D906CB
S1130B00809188009091890088976CF7612F70E03C
S1130B1040E050E0CE0101960E94FB03812F0E9429
S1130B203101E1CF80918800909189008897DCF6AB
S1130B308D819E81181619067CF4CE0101960E94BF
S1130B40100240E050E0BC01CE0107960E94FB0376
S1130B50CE0101960E941E05612F70E041E050E035
S1130B60CE0107960E94FB03812F0E943101BBCF67
S1130B700E94C901CE0101960E941E05CE0107966E
S1130B800E941E05B0CFCE0101960E94100240E0E3
S1130B9050E0BC01CE0107960E94FB03CE010196F2
S1130BA00E941E05CE0107960E947E038C010E94BE
S1130BB0420511230CF401966EE0681B81E00E944B
S1130BC06E0111231CF48DE20E94310101151105FF
S1130BD021F0C8010E942D0586CF80E30E943101D7
S1130BE082CF843078F4813041F028F0823039F0BB
S1130BF0833039F008956ABB089567BB089564BBD8
S1130C00089561BB0895843078F4813041F028F070
S1130C10823039F0833039F008956BBB089568BB96
S1130C20089565BB089562BB0895843008F077C0C9
S1130C30683008F074C0813011F130F08230D1F1A5
S1130C40833009F452C00895413059F42BB381E044
S1130C5090E002C0880F991F6A95E2F7822B8BBB44
S1130C60089541115CC02BB381E090E002C0880F6D
S1130C70991F6A95E2F7809582238BBB08954130D2
S1130C8059F428B381E090E002C0880F991F6A9557
S1130C90E2F7822B88BB0895411141C028B381E05B
S1130CA090E002C0880F991F6A95E2F7809582232D
S1130CB088BB0895413059F425B381E090E002C027
S1130CC0880F991F6A95E2F7822B85BB089541111D
S1130CD026C025B381E090E002C0880F991F6A9571
S1130CE0E2F78095822385BB0895413059F422B3FD
S1130CF081E090E002C0880F991F6A95E2F7822B89
S1130D0082BB089541110BC022B381E090E002C080
S1130D10880F991F6A95E2F78095822382BB089514
S1130D20843078F5683078F5813079F028F08230B5
S1130D30A9F08330E1F024C089B390E002C0959516
S1130D4087956A95E2F78170089586B390E002C0B2
S1130D50959587956A95E2F78170089583B390E03D
S1130D6002C0959587956A95E2F78170089580B3DE
S1130D7090E002C0959587956A95E2F78170089591
S1130D80089580E0089580E0089597FB072E16F4F7
S1130D90009407D077FD09D00E94DF0607FC05D038
S1130DA03EF4909581959F4F0895709561957F4F7E
S1130DB00895EE0FFF1F0590F491E02D0994AA1BEE
S1130DC0BB1B51E107C0AA1FBB1FA617B70710F032
S1130DD0A61BB70B881F991F5A95A9F78095909564
S1130DE0BC01CD0108950F931F93CF93DF938230FD
S1130DF0910510F482E090E0E0918C00F0918D0078
S1130E0020E030E0A0E0B0E0309719F1408151815A
S1130E100281138148175907C8F08417950769F4AC
S1130E20109731F012960C93129713961C9327C0C7
S1130E3000938C0010938D0022C02115310519F008
S1130E404217530718F49A01BD01EF01DF01F801BD
S1130E50DBCF21153105F9F0281B390B243031057E
S1130E6080F48A819B816115710521F0FB019383D4
S1130E70828304C090938D0080938C00FE0132968F
S1130E8044C0FE01E20FF31F819391932250310974
S1130E90398328833AC020918A0030918B00232B18
S1130EA041F4209162003091630030938B002093D1
S1130EB08A0020916000309161002115310541F4D0
S1130EC02DB73EB74091640050916500241B350B4B
S1130ED0E0918A00F0918B00E217F307A0F42E1B37
S1130EE03F0B2817390778F0AC014E5F5F4F24178A
S1130EF0350748F04E0F5F1F50938B0040938A00D4
S1130F008193919302C0E0E0F0E0CF01DF91CF91B3
S1130F101F910F910895CF93DF93009709F481C037
S1130F20FC01329713821282A0918C00B0918D0043
S1130F30109781F420813181820F931F20918A00C0
S1130F4030918B002817390751F5F0938B00E0930B
S1130F508A0067C0ED0120E030E0CE17DF0740F4DF
S1130F604A815B819E0141155105F1F0EA01F5CFFB
S1130F70D383C28340815181840F951FC817D90739
S1130F8059F488819981840F951F029691838083F7
S1130F908A819B81938382832115310529F4F093FF
S1130FA08D00E0938C003DC0E901FB83EA83499105
S1130FB05991C40FD51FEC17FD0761F4808191810D
S1130FC0840F951F0296E901998388838281938116
S1130FD09B838A83E0E0F0E012968D919C911397B5
S1130FE0009719F0FD01DC01F7CF8D919C911197C9
S1130FF09D012E5F3F4F820F931F20918A003091F5
S11310008B002817390769F4309729F410928D0062
S113101010928C0002C013821282B0938B00A093B2
S10F10208A00DF91CF910895F894FFCF6F
S113102C00008E0020003738392F343536583132D1
S113103C332D2A303D2B0300020001000000070071
S109104C0600050004008B
S9030000FC
